:020000040800F2
:100000000000032095A70008E1A70008E1A7000869
:10001000E1A70008E1A70008E1A700080000000030
:10002000000000000000000000000000E19E000849
:10003000E1A7000800000000A59F0008FD9F000840
:10004000E1A70008E1A70008E1A70008E1A7000870
:10005000E1A70008E1A70008E1A70008E1A7000860
:10006000E1A70008E1A70008E1A70008E1A7000850
:10007000E1A70008E1A70008E1A70008E1A7000840
:10008000E1A70008E1A70008E1A70008E1A7000830
:10009000E1A70008E1A70008E1A70008E1A7000820
:1000A000E1A70008E1A70008E1A70008E1A7000810
:1000B000F9A10008E1A70008E1A70008E1A70008EE
:1000C000E1A70008E1A70008E1A70008E1A70008F0
:1000D000E1A7000855A60008E1A70008E1A700086D
:1000E000E1A70008E1A70008E1A70008E1A70008D0
:1000F000E1A70008E1A70008E1A70008E1A70008C0
:10010000E1A70008E1A70008E1A70008E1A70008AF
:10011000E1A70008E1A70008E1A70008E1A700089F
:10012000E1A70008E1A70008E1A70008E1A700088F
:10013000E1A70008E1A70008E1A70008E1A700087F
:10014000E1A70008E1A70008E1A70008E1A700086F
:10015000E1A70008E1A70008E1A70008E1A700085F
:10016000E1A70008E1A70008E1A70008E1A700084F
:10017000E1A70008E1A70008E1A70008E1A700083F
:10018000E1A70008E1A70008E1A70008E1A700082F
:10019000E1A70008E1A70008E1A70008E1A700081F
:0C01A00091A60008E1A70008E1A70008F4
:1001B000A41303080000002080090020800900200B
:1001C00008A40120844641EA000313F003036DD123
:1001D000403A41D351F8043B40F8043B51F8043B0A
:1001E00040F8043B51F8043B40F8043B51F8043B11
:1001F00040F8043B51F8043B40F8043B51F8043B01
:1002000040F8043B51F8043B40F8043B51F8043BF0
:1002100040F8043B51F8043B40F8043B51F8043BE0
:1002200040F8043B51F8043B40F8043B51F8043BD0
:1002300040F8043B51F8043B40F8043B51F8043BC0
:1002400040F8043B51F8043B40F8043B51F8043BB0
:1002500040F8043B403ABDD2303211D351F8043B50
:1002600040F8043B51F8043B40F8043B51F8043B90
:1002700040F8043B51F8043B40F8043B103AEDD2FF
:100280000C3205D351F8043B40F8043B043AF9D250
:10029000043208D0D2071CBF11F8013B00F8013B23
:1002A00001D30B8803806046704700BF082A13D330
:1002B0008B078DD010F003038AD0C3F10403D21A48
:1002C000DB071CBF11F8013B00F8013B80D331F87C
:1002D000023B20F8023B7BE7043AD9D3013A11F8FC
:1002E000013B00F8013BF9D20B7803704B78437067
:1002F0008B7883706046704740EA010C1CF0070F52
:1003000023D1BDF1100DCDE90245CDE900676FF0B5
:1003100000064FF0000700BFF0E80223F1E80245B5
:10032000A24282FA46FCA7FA86FC08BFBCF1000F85
:1003300040F0D780AB4283FA46FCA7FA86FC08BFA0
:10034000BCF1000F40F0CA80E6E710F0030C21D0AA
:1003500020F0030050F8042B5FEACC7C08D00FD2C9
:1003600011F801CB5FFA92F3B3EB0C0C10D17BB117
:1003700011F801CB5FFAA2F3B3EB0C0C08D13BB13F
:1003800011F801CB5FFAB2F3B3EB0C0C00D10BB94F
:1003900060467047BDF1100DCDE90245CDE900671B
:1003A0006FF000064FF0000711F0030C2DD110F094
:1003B000040F0DD050F8042B51F8044BA24282FADE
:1003C00046FCA7FA86FC08BFBCF1000F40F089800C
:1003D00011F0040F9FD051F8045B00BFF0E8022336
:1003E000AA4282FA46FCA7FA86FC08BFBCF1000FBD
:1003F00071D1F1E80245A34283FA46FCA7FA86FCD4
:1004000008BFBCF1000F63D1E8E721F00301BCF1A4
:10041000020F1ED03BDA51F8045B00BF50F8043BDA
:100420004FEA152583FA46FCA7FA86FCB7EB0C2F9A
:1004300003EA162208BFAA424DD151F8045BBCF171
:10044000000F82EA03034FEA056208BF93423CD1E2
:10045000E4E751F8045B00BF50F8043B4FEA154550
:1004600083FA46FCA7FA86FCB7EB0C4F03EA164268
:1004700008BFAA422FD151F8045BBCF1000F82EAF9
:1004800003034FEA054208BF93421ED1E4E751F847
:10049000045B00BF50F8043B4FEA156583FA46FC45
:1004A000A7FA86FCB7EB0C6F03EA166208BFAA42F4
:1004B00011D151F8045BBCF1000F82EA03034FEA4B
:1004C000052208BF934200D1E4E719BA12BA0AE044
:1004D00019BA22BA07E011BA2ABA04E019BA2ABA3C
:1004E00001E011BA22BA9CFA8CF0DDE90067DDE97F
:1004F00002451DF1100D38B1B0FA80F0C0F11800BE
:1005000021FA00F122FA00F20120914298BF8041C5
:10051000704700BF81F0004102E000BF83F000435C
:1005200030B54FEA41044FEA430594EA050F08BF8E
:1005300090EA020F1FBF54EA000C55EA020C7FEA52
:10054000645C7FEA655C00F0E2804FEA5454D4EBCF
:100550005555B8BF6D420CDD2C4480EA020281EA99
:10056000030382EA000083EA010180EA020281EAD1
:100570000303362D88BF30BD11F0004F4FEA013123
:100580004FF4801C4CEA113102D0404261EB410132
:1005900013F0004F4FEA03334CEA133302D05242B8
:1005A00063EB430394EA050F00F0A780A4F1010474
:1005B000D5F1200E0DDB02FA0EFC22FA05F28018AE
:1005C00041F1000103FA0EF2801843FA05F3594194
:1005D0000EE0A5F120050EF1200E012A03FA0EFC13
:1005E00028BF4CF0020C43FA05F3C01851EBE3713D
:1005F00001F0004507D54FF0000EDCF1000C7EEB5A
:1006000000006EEB0101B1F5801F1BD3B1F5001F97
:100610000CD349085FEA30004FEA3C0C04F10104B6
:100620004FEA445212F5800F80F09A80BCF1004FDF
:1006300008BF5FEA500C50F1000041EB045141EA61
:10064000050130BD5FEA4C0C404141EB010111F462
:10065000801FA4F10104E9D191F0000F04BF01460D
:100660000020B1FA81F308BF2033A3F10B03B3F1EB
:1006700020020CDA0C3208DD02F1140CC2F10C027B
:1006800001FA0CF021FA02F10CE002F11402D8BFD9
:10069000C2F1200C01FA02F120FA0CFCDCBF41EAA5
:1006A0000C019040E41AA2BF01EB0451294330BD74
:1006B0006FEA04041F3C1CDA0C340EDC04F1140451
:1006C000C4F1200220FA04F001FA02F340EA030028
:1006D00021FA04F345EA030130BDC4F10C04C4F16E
:1006E000200220FA02F001FA04F340EA030029464E
:1006F00030BD21FA04F0294630BD94F0000F83F498
:10070000801306BF81F480110134013D4EE77FEA7A
:10071000645C18BF7FEA655C29D094EA050F08BFC6
:1007200090EA020F05D054EA000C04BF19461046A7
:1007300030BD91EA030F1EBF0021002030BD5FEAEB
:10074000545C05D14000494128BF41F0004130BD13
:1007500014F580043CBF01F5801130BD01F0004567
:1007600045F0FE4141F470014FF0000030BD7FEADA
:10077000645C1ABF194610467FEA655C1CBF0B46D5
:10078000024650EA013406BF52EA033591EA030FEC
:1007900041F4002130BD00BF90F0000F04BF0021E4
:1007A000704730B54FF4806404F132044FF0000517
:1007B0004FF0000150E700BF90F0000F04BF002190
:1007C000704730B54FF4806404F1320410F00045F6
:1007D00048BF40424FF000013EE700BF42004FEAF1
:1007E000E2014FEA31014FEA02701FBF12F07F436E
:1007F00093F07F4F81F06051704792F0000F14BF6B
:1008000093F07F4F704730B54FF4607401F00045AE
:1008100021F0004120E700BF50EA010208BF704705
:1008200030B54FF000050AE050EA010208BF7047FA
:1008300030B511F0004502D5404261EB41014FF463
:10084000806404F132045FEA915C3FF4DCAE4FF067
:1008500003025FEADC0C18BF03325FEADC0C18BF4E
:10086000033202EBDC02C2F1200300FA03FC20FA9F
:1008700002F001FA03FE40EA0E0021FA02F11444EC
:10088000C1E600BF70B54FF0FF0C4CF4E06C1CEA01
:1008900011541DBF1CEA135594EA0C0F95EA0C0F76
:1008A00000F0DEF82C4481EA030621EA4C5123EAE9
:1008B0004C5350EA013518BF52EA033541F4801118
:1008C00043F4801338D0A0FB02CE4FF00005E1FBCB
:1008D00002E506F00042E0FB03E54FF00006E1FB15
:1008E00003569CF0000F18BF4EF0010EA4F1FF0458
:1008F000B6F5007F64F5407404D25FEA4E0E6D4198
:1009000046EB060642EAC62141EA55514FEAC520A8
:1009100040EA5E504FEACE2EB4F1FD0C88BFBCF524
:10092000E06F1ED8BEF1004F08BF5FEA500E50F1D5
:10093000000041EB045170BD06F0004646EA01019B
:1009400040EA020081EA0301B4EB5C04C2BFD4EBCD
:100950000C0541EA045170BD41F480114FF0000EC6
:10096000013C00F3AB8014F1360FDEBF002001F034
:10097000004170BDC4F10004203C35DA0C341BDCAE
:1009800004F11404C4F1200500FA05F320FA04F080
:1009900001FA05F240EA020001F0004221F00041B4
:1009A00010EBD37021FA04F642EB06015EEA430E27
:1009B00008BF20EAD37070BDC4F10C04C4F1200557
:1009C00000FA04F320FA05F001FA04F240EA02000A
:1009D00001F0004110EBD37041F100015EEA430EDB
:1009E00008BF20EAD37070BDC4F1200500FA05F2FB
:1009F0004EEA020E20FA04F301FA05F243EA02037A
:100A000021FA04F001F0004121FA04F220EA020088
:100A100000EBD3705EEA430E08BF20EAD37070BDCE
:100A200094F0000F0FD101F00046400041EB0101AE
:100A300011F4801F08BF013CF7D041EA060195F090
:100A4000000F18BF704703F00046520043EB03034A
:100A500013F4801F08BF013DF7D043EA0603704737
:100A600094EA0C0F0CEA135518BF95EA0C0F0CD042
:100A700050EA410618BF52EA4306D1D181EA030188
:100A800001F000414FF0000070BD50EA410606BF82
:100A90001046194652EA430619D094EA0C0F02D1C7
:100AA00050EA013613D195EA0C0F05D152EA03360C
:100AB0001CBF104619460AD181EA030101F000412A
:100AC00041F0FE4141F470014FF0000070BD41F073
:100AD000FE4141F4780170BD70B54FF0FF0C4CF44D
:100AE000E06C1CEA11541DBF1CEA135594EA0C0F6C
:100AF00095EA0C0F00F0A7F8A4EB050481EA030EB9
:100B000052EA03354FEA013100F088804FEA03339F
:100B10004FF0805545EA131343EA12634FEA02226D
:100B200045EA111545EA10654FEA00260EF000412E
:100B30009D4208BF964244F1FD0404F5407402D280
:100B40005B084FEA3202B61A65EB03055B084FEA11
:100B500032024FF480104FF4002CB6EB020E75EB0E
:100B6000030E22BFB61A754640EA0C005B084FEA36
:100B70003202B6EB020E75EB030E22BFB61A7546B3
:100B800040EA5C005B084FEA3202B6EB020E75EBFE
:100B9000030E22BFB61A754640EA9C005B084FEA76
:100BA0003202B6EB020E75EB030E22BFB61A754683
:100BB00040EADC0055EA060E18D04FEA051545EA72
:100BC00016754FEA06164FEAC30343EA52734FEA1B
:100BD000C2025FEA1C1CC0D111F4801F0BD141EA94
:100BE00000014FF000004FF0004CB6E711F4801FF9
:100BF00004BF01430020B4F1FD0C88BFBCF5E06FD9
:100C00003FF6AFAEB5EB030C04BFB6EB020C5FEAE8
:100C1000500C50F1000041EB045170BD0EF0004E3D
:100C20004EEA113114EB5C04C2BFD4EB0C0541EA6F
:100C3000045170BD41F480114FF0000E013C90E66C
:100C400045EA060E8DE60CEA135594EA0C0F08BF30
:100C500095EA0C0F3FF43BAF94EA0C0F0AD150EA2F
:100C600001347FF434AF95EA0C0F7FF425AF1046C2
:100C700019462CE795EA0C0F06D152EA03353FF4EA
:100C8000FDAE1046194622E750EA410618BF52EA67
:100C900043067FF4C5AE50EA41047FF40DAF52EA3B
:100CA00043057FF4EBAE12E74FF0FF3C06E000BFD8
:100CB0004FF0010C02E000BF4FF0010C4DF804CDE5
:100CC0004FEA410C7FEA6C5C4FEA430C18BF7FEAA5
:100CD0006C5C1BD001B050EA410C0CBF52EA430CD3
:100CE00091EA030F02BF90EA020F0020704710F153
:100CF000000F91EA030F58BF994208BF90422CBFE2
:100D0000D8176FEAE37040F0010070474FEA410CDA
:100D10007FEA6C5C02D150EA013C07D14FEA430CF8
:100D20007FEA6C5CD6D152EA033CD3D05DF8040B69
:100D3000704700BF8446104662468C46194663469B
:100D400000E000BF01B5FFF7B7FF002848BF10F172
:100D5000000F01BD4DF808EDFFF7F4FF0CBF0120B7
:100D600000205DF808FB00BF4DF808EDFFF7EAFF33
:100D700034BF012000205DF808FB00BF4DF808EDEE
:100D8000FFF7E0FF94BF012000205DF808FB00BFE3
:100D90004DF808EDFFF7CEFF94BF012000205DF86D
:100DA00008FB00BF4DF808EDFFF7C4FF34BF01207A
:100DB00000205DF808FB00BF4FEA410212F5001267
:100DC00015D211D56FF47873B3EB625212D94FEA92
:100DD000C12343F0004343EA505311F0004F23FA7C
:100DE00002F018BF404270474FF00000704750EAD1
:100DF000013005D111F0004008BF6FF0004070478E
:100E00004FF00000704700BF4BB942B9002908BF3E
:100E1000002802D04FF0FF31084600F03BB882B006
:100E2000EC462DE9005000F01DF8DDF804E002B0BA
:100E30000CBC70472DE97043069E14461D46804643
:100E4000894600F029F804FB01F300FB0533A4FBFD
:100E500000451D44B8EB040469EB0505C6E90045EF
:100E6000BDE870832DE97043069E1446804689468E
:100E70001D4600F05DF900FB05F504FB0153A0FBE6
:100E800004451D44B8EB040469EB0505C6E90045BB
:100E9000BDE87083704700BF00292DE9F00FC0F254
:100EA0009F800024002BC0F29680154606460F4610
:100EB000002B3ED18A4257D9B2FA82F34BB1C3F12B
:100EC000200201FA03F720FA02F29D40174300FACC
:100ED00003F6290CB7FBF1F2330C01FB127CA8B22C
:100EE00043EA0C4700FB02F3BB4209D97F1902F128
:100EF000FF3C80F00181BB4240F2FE80023A2F4469
:100F0000FF1AB7FBF1F3B6B201FB137146EA0141D8
:100F100000FB03F0884208D9491903F1FF3780F03C
:100F2000ED80884240F2EA80023B43EA024200231D
:100F300003E08B420AD900231A461046194614B121
:100F4000404261EB4101BDE8F00F7047B3FA83F80E
:100F5000B8F1000F40F084808B4202D3824200F24D
:100F6000DE8000230122E8E712B90123B3FBF2F58A
:100F7000B5FA85F2002A39D17F1B280C1FFA85FCAF
:100F80000123B7FBF0F1320C00FB117742EA07476F
:100F90000CFB01F2BA4207D97F1901F1FF3802D2E6
:100FA000BA4200F2C1804146BF1AB7FBF0F2B6B2B6
:100FB00000FB127046EA00400CFB02FC844507D996
:100FC000401902F1FF3702D2844500F2AB803A4665
:100FD00042EA0142B1E7E443524263EB430364E770
:100FE000404261EB41014FF0FF345BE79540C2F1B5
:100FF000200327FA03F1280C26FA03F39740B1FBEC
:10100000F0F81F433B0C00FB18111FFA85FC43EA64
:1010100001410CFB08F38B4206FA02F608D9491984
:1010200008F1FF3279D28B4277D9A8F1020829441E
:10103000C91AB1FBF0F3BFB200FB131147EA014735
:101040000CFB03F2BA4207D97F1903F1FF3160D2DA
:10105000BA425ED9023B2F44BF1A43EA084390E7E5
:10106000C8F1200203FA08FC25FA02F343EA0C0C4B
:101070004FEA1C4921FA02F301FA08F720FA02F2BA
:10108000B3FBF9F1174309FB11333A0C1FFA8CFB40
:1010900042EA03430BFB01FA9A4505FA08F008D926
:1010A00013EB0C0301F1FF3235D29A4533D90239E3
:1010B0006344CAEB0303B3FBF9F209FB1233BFB27B
:1010C00047EA03470BFB02F9B94508D917EB0C07B0
:1010D00002F1FF331BD2B94519D9023A674442EAFB
:1010E0000145A5FB0001C9EB07078F424FF0000344
:1010F0000AD305D02A4620E7624601E73B4614E7BB
:1011000006FA08F68642F5D26A1E002315E71A464B
:10111000E5E70B46A0E71146CBE7904688E7434654
:1011200042460AE7023A53E702392F443CE700BF40
:101130002DE9F00F144605460E46002B43D18A4296
:1011400053D9B2FA82F757B1C7F1200620FA06F652
:1011500001FA07F302FA07F41E4300FA07F5210C1F
:10116000B6FBF1F22B0C01FB1267A0B243EA074673
:1011700000FB02F3B34209D9361902F1FF3780F0C0
:10118000F680B34240F2F380023A2644F61AB6FBE8
:10119000F1F3ADB201FB136145EA014100FB03F03D
:1011A000884208D9091903F1FF3680F0E2808842AD
:1011B00040F2DF80023B43EA024200231046194618
:1011C000BDE8F00F70478B424AD8B3FA83F6002E81
:1011D0004DD18B4202D3824200F2D68000230122FD
:1011E00010461946BDE8F00F704712B90124B4FB50
:1011F000F2F4B4FA84F2002A7CD1091B260CA7B2BF
:101200000123B1FBF6F02A0C06FB101142EA014162
:1012100007FB00F28A4207D9091900F1FF3C02D20C
:101220008A4200F2C3806046891AB1FBF6F2ADB281
:1012300006FB121145EA014507FB02F7AF4208D948
:101240002C1902F1FF3180F09680A74240F2938082
:10125000023A42EA004210461946BDE8F00F7047D4
:1012600000231A4610461946BDE8F00F7047C6F134
:10127000200522FA05F4B3401C434FEA144821FA32
:1012800005F301FA06F720FA05F5B3FBF8FC2F4346
:1012900008FB1C333D0C1FFA84FA45EA03430AFBA2
:1012A0000CF9994502FA06FB04D91B190CF1FF321F
:1012B0006DD39446C9EB0303B3FBF8F508FB153374
:1012C000BFB247EA03470AFB05F8B84504D93F19FE
:1012D00005F1FF3361D31D4645EA0C4CACFB0B23F3
:1012E000C8EB07079F424FF0000549D345D062463F
:1012F0002B4663E79440C2F1200321FA03FC260C3D
:1013000020FA03F301FA02F5BCFBF6F843EA050103
:101310000B0C06FB18CCA7B243EA0C4C07FB08F3F6
:10132000634500FA02F509D91CEB040C08F1FF3201
:101330003AD2634538D9A8F10208A444C3EB0C0C97
:10134000BCFBF6F389B206FB13CC41EA0C4107FB68
:1013500003F28A4207D9091903F1FF3022D28A42E7
:1013600020D9023B2144891A43EA084349E73A4617
:101370000CE733461FE70A466BE7B0409042B6D20F
:101380000CF1FF32002319E73346324616E7994540
:101390008FD9ACF1020C23448CE7B8459BD9023DB0
:1013A000274499E70346DEE79046C7E70238214421
:1013B0003AE700BF2DE9F04F85B000230293039375
:1013C0000BF0E6F9DFF880A2904CDFF88092DFF8AE
:1013D00080828F4F8F4E904D0190D7E08AF800B0F9
:1013E00000238E488DF80A3010210EF067FD99F821
:1013F00000308342834604D00BF0CAF90021C4E9CF
:1014000000010BF0C5F9D4E900230021801A61EB3B
:101410000301002908BF0B2809D3814A13785B45D3
:1014200005D082F800B0BBF1000F00F0E48089F82D
:1014300000B0002379488DF80B3020210EF03EFDDE
:1014400098F800308342834604D00BF0A1F90021C4
:10145000C4E900010BF09CF9D4E900230021801AB3
:1014600061EB0301002908BF0B2809D36D4A1378EB
:101470005B4505D082F800B0BBF1000F00F0C180E1
:1014800088F800B0002365488DF80C3004210EF078
:1014900015FD3B788342834604D00BF079F9002197
:1014A000C4E900010BF074F9D4E900230021801A8B
:1014B00061EB0301002908BF0B2809D35A4A1378AE
:1014C0005B4505D082F800B0BBF1000F00F09B80B7
:1014D00087F800B0002355488DF80D3001210EF03B
:1014E000EDFC33788342834604D00BF051F90021A0
:1014F000C4E900010BF04CF9D4E900230021801A63
:1015000061EB0301002908BF0B2808D3484A137870
:101510005B4504D082F800B0BBF1000F6DD086F8B7
:1015200000B000233D488DF80E3008210EF0C6FCB7
:101530002B788342834604D00BF02AF90021C4E9BA
:1015400000010BF025F9D4E900230021801A61EB9A
:101550000301002908BF0B2808D3364A13785B45DE
:1015600004D082F800B0BBF1000F48D085F800B07D
:101570000023314A8DF80F30106802A9642200233D
:1015800009F00CFC01A814210BF044FA2B480FF0D1
:10159000CFFC03092A488DF808300FF0C9FC402120
:1015A0006FEA10131D488DF809300EF087FC9AF889
:1015B00000308342834604D00BF0EAF80021C4E9EE
:1015C00000010BF0E5F8D4E900230021801A61EB5B
:1015D0000301002908BF0B28FFF400AF194A137854
:1015E0005B453FF4FBAE82F800B0BBF1000F7FF427
:1015F000F5AE0123F5E601231CE7012392E7012361
:10160000B7E701233FE7012365E700BF8809002012
:10161000020000200300002004000020001002400F
:101620008109002082090020830900200000024077
:1016300084090020850900204C0C00200020014076
:101640000022014080090020050000200000002049
:1016500001000020F8B51448144F40210EF02EFC74
:101660003B78834206461AD00BF092F8104C0021CA
:10167000C4E900010BF08CF8D4E900450021001BFF
:1016800061EB0501002908BF0B2805D3094B1A7827
:10169000B24201D01E7026B13E700020F8BD044C4D
:1016A000E8E70120F8BD00BF00100240050000205F
:1016B0008809002080090020F8B51448144F102133
:1016C0000EF0FCFB3B78834206461AD00BF060F824
:1016D000104C0021C4E900010BF05AF8D4E9004590
:1016E0000021001B61EB0501002908BF0B2805D371
:1016F000094B1A78B24201D01E7026B13E7000200C
:10170000F8BD044CE8E70120F8BD00BF001002401E
:10171000000000208809002081090020F8B5144845
:10172000144F20210EF0CAFB3B78834206461AD0A4
:101730000BF02EF8104C0021C4E900010BF028F842
:10174000D4E900450021001B61EB0501002908BF19
:101750000B2805D3094B1A78B24201D01E7026B16E
:101760003E700020F8BD044CE8E70120F8BD00BF42
:10177000001002400100002088090020820900209A
:10178000F8B51448144F04210EF098FB3B788342BF
:1017900006461AD00AF0FCFF104C0021C4E90001F3
:1017A0000AF0F6FFD4E900450021001B61EB0501BA
:1017B000002908BF0B2805D3094B1A78B24201D083
:1017C0001E7026B13E700020F8BD044CE8E70120F1
:1017D000F8BD00BF00100240020000208809002070
:1017E00083090020F8B51448144F08210EF066FB59
:1017F0003B78834206461AD00AF0CAFF104C0021FB
:10180000C4E900010AF0C4FFD4E900450021001B2F
:1018100061EB0501002908BF0B2805D3094B1A7895
:10182000B24201D01E7026B13E700020F8BD044CBB
:10183000E8E70120F8BD00BF0010024004000020CE
:101840008809002085090020F8B51448144F0121AB
:101850000EF034FB3B78834206461AD00AF098FF1C
:10186000104C0021C4E900010AF092FFD4E90045C0
:101870000021001B61EB0501002908BF0B2805D3DF
:10188000094B1A78B24201D01E7026B13E7000207A
:10189000F8BD044CE8E70120F8BD00BF000002409D
:1018A0000300002088090020840900202DE9F04170
:1018B00082B00AF06DFFDFF86080144F144E154DB2
:1018C000009000240AF064FF001B01900AF060FF02
:1018D0000022134601A90446D8F8000009F05EFA78
:1018E0004FF0FF31386809F00FFE08F02DFF306827
:1018F000002115F0D5FF00210A460B46286809F0A3
:101900004DFA684614210BF085F8DBE7140B002034
:10191000A49F0120F00A0020E40A00202DE9F047EE
:101920008AB000240123394D394F3A4E8DF80830E2
:1019300004940594286869464FF0FF3209F05CFC76
:101940000A2CF7D8DFE804F03E3535353535353526
:10195000353506009DF819A09DF81AE09DF81B008A
:101960009DF81C109DF81D909DF81E409DF81F20AD
:101970009DF800C09DF820308EEA0A0880EA080829
:1019800081EA080889EA080884EA080882EA08085F
:10199000BCF1550F83EA080819D09DF821C0C44551
:1019A00015D000221346306802A909F0F7F9002487
:1019B000C0E79DF800200AAB2344013403F8102C43
:1019C000E4B2B7E79DF80020AA2AB3D1F3E74FF0BD
:1019D0000008C44669F3070C6AF307086EF30F2882
:1019E00064F30F2C60F3174862F3174C002261F385
:1019F0001F6863F31F6C3868CDF81080134604A984
:101A0000CDF814C009F0CAF9CBE700BFA80B00203D
:101A1000740B0020A40B00202DE9F04F89B00123A6
:101A2000404DDFF80CB1DFF80CA1DFF80C91DFF8C6
:101A30000C813D4F3D4E8DF80830002428686946E2
:101A40004FF0FF3209F0D8FB072CF7D8DFE804F09D
:101A500030272727272727049DF800E09DF8194005
:101A60009DF81A009DF81B109DF81C209DF81D3054
:101A7000BEF1550F21D080EA040E81EA0E0E82EAF3
:101A80000E0E9DF81EC083EA0E0EF44515D00022FE
:101A90001346306802A909F081F90024CEE79DF8C9
:101AA000002008AB2344013403F8082CE4B2C5E756
:101AB0009DF80020AA2AC1D1F3E78DF81220052B4A
:101AC0004FF000028DF814308DF810408DF81100A1
:101AD0008DF81310134604D0386804A909F05EF994
:101AE000D5E704A9DBF8000009F058F900221346F5
:101AF00004A9DAF8000009F051F90022134604A9FC
:101B0000D9F8000009F04AF90022134604A9D8F8D0
:101B1000000009F043F900221346386804A909F0CF
:101B20003DF9B4E7A80B0020940C0020A40B002082
:101B30009C0B0020340A0020980B0020F80A00209B
:101B40002DE9F04188B001232A4D2B4F2B4E8DF803
:101B500008300024286869464FF0FF3209F04CFB3A
:101B6000072CF7D8DFE804F02F26262626262604A1
:101B70009DF819109DF81A809DF81BC09DF81CE077
:101B80009DF800309DF81D4088EA01028CEA0202AF
:101B90008EEA0202552B84EA020219D09DF81E300B
:101BA000934215D000221346306802A909F0F6F8D6
:101BB0000024CFE79DF8002008AB2344013403F84C
:101BC000082CE4B2C6E79DF80020AA2AC2D1F3E7A8
:101BD00000228DF81010134638688DF8118004A982
:101BE0008DF814C08DF813E08DF8154009F0D6F883
:101BF000D8E700BFA80B0020AC0B0020A40B0020EE
:101C00002DE9F84F994C9A48DFF8FCB2DFF8FCA2B6
:101C1000DFF8FC92DFF8FC82964F974E974D2146F5
:101C200022F074F80146584620F040FD584620F056
:101C30008FFD21469248DFF8E0B222F067F80146B6
:101C4000504620F033FD504620F082FD21468D485D
:101C5000DFF8C8A222F05AF80146484620F026FDD7
:101C6000484620F075FD21468748DFF8B49222F0FF
:101C70004DF80146404620F019FD404620F068FD31
:101C800021468248DFF89C8222F040F8014638461F
:101C900020F00CFD384620F05BFD21467C487D4F4E
:101CA00022F034F80146304620F000FD304620F0A6
:101CB0004FFD21467848794E22F028F80146284603
:101CC00020F0F4FC284620F043FD21467448754D71
:101CD00022F01CF80146744820F0E8FC724820F01D
:101CE00037FD2146714822F011F80146704820F076
:101CF000DDFC6F4820F02CFD21466E4822F006F8EE
:101D000001466D4820F0D2FC6B4820F021FD2146B1
:101D10006A4821F0FBFF0146694820F0C7FC68488B
:101D200020F016FD2146674821F0F0FF0146584695
:101D300020F0BCFC584620F00BFD21466248DFF83D
:101D4000E8B121F0E3FF0146504620F0AFFC5046D9
:101D500020F0FEFC21465D48DFF8D0A121F0D6FF3F
:101D60000146484620F0A2FC484620F0F1FC2146FE
:101D70005748DFF8BC9121F0C9FF0146404620F0EA
:101D800095FC404620F0E4FC21465248DFF8A4814F
:101D900021F0BCFF0146384620F088FC384620F090
:101DA000D7FC21464C4821F0B1FF0146304620F0D7
:101DB0007DFC304620F0CCFC2146484821F0A6FFAF
:101DC0000146284620F072FC284620F0C1FC21463E
:101DD000434821F09BFF0146424820F067FC414800
:101DE00020F0B6FC2146404821F090FF01463F48D4
:101DF00020F05CFC3D4820F0ABFC21463C4821F043
:101E000085FF01463B4820F051FC3A4820F0A0FCF9
:101E10002146394821F07AFF0146584620F046FC19
:101E2000584620F095FC2146344821F06FFF0146CA
:101E3000504620F03BFC504620F08AFC21463048BA
:101E400021F064FF0146484620F030FC484620F06F
:101E50007FFC21462B4821F059FF0146404620F0E7
:101E600025FC4046BDE8F84F20F072BC30AD0208BA
:101E700024AD0208000A0020C40B0020AC09002099
:101E800034AD020844AD020854AD020864AD020846
:101E900074AD02086C0C002084AD0208FC0A00201E
:101EA00094AD0208080C0020B40A0020A8AD020876
:101EB000540C0020B4AD0208680A0020C4AD02082A
:101EC0007C0B0020D4AD0208E4AD0208F4AD02089A
:101ED00008AE02081CAE020830AE020840AE02088E
:101EE0004CAE0208C40900205CAE0208E8090020DC
:101EF0006CAE0208B40C002078AE020888AE02086E
:101F000094AE0208A4AE020890090020500A0020F6
:101F1000980C0020DC0B0020180A0020380A002052
:101F2000380B0020240C0020200B0020980A0020F1
:101F3000580B0020800A00202DE9F04F83B008F0F4
:101F4000D1FBFFF75DFE01200146002208F078FD7D
:101F5000B34BDFF8F8A3186001210022052008F038
:101F60006FFDB04BDFF8E8931860082100221420C1
:101F700008F066FDAC4BDFF8DC8318600821002216
:101F8000142008F05DFDA94BA94F18600121002223
:101F9000052008F055FDA74B0821186000221420E9
:101FA00008F04EFDA44B042118600022012008F027
:101FB00047FDA24B042118600022012008F040FDDB
:101FC0009F4B186001200146002208F039FD9D4B0F
:101FD000186001200146002208F032FD9A4B18607B
:101FE00001200146002208F02BFD984B18600120CB
:101FF0000146002208F024FD954B062118600022BE
:10200000142008F01DFD934B0621186000221420B7
:1020100008F016FD904B062118600022142008F0ED
:102020000FFD8E4B062118600022142008F008FDD9
:102030008B4B062118600022142008F001FD894B0B
:10204000062118600022142008F0FAFC864B0821B3
:1020500018600022142008F0F3FC844B0221186061
:102060000022012008F0ECFC814B082118600022BE
:10207000012008F0E5FC7F4B18600120014600229A
:1020800008F0DEFC7C4B062118600022012008F0DD
:10209000D7FC7A4B062118600022012008F0D0FC02
:1020A000774B0621186000220A2008F0C9FC754B06
:1020B000186001200146002208F0C2FC724B00218A
:1020C00018600322012008F0BBFC704B002118604F
:1020D0000322012008F0B4FC6D4B0626186000F0C6
:1020E00049FB6C4B009601936B496C4832220023EC
:1020F00009F0F0FF6A4B6B496B4807228DE80C0032
:1021000000231C463C2209F0E5FF0096234601947B
:1021100066496748642209F0DDFF0425654A009599
:1021200023460192644965484FF47A7209F0D2FF60
:10213000634A009623460192624963484FF47A72DB
:1021400009F0C8FF614A0096234601926049614840
:102150004FF47A7209F0BEFF5F4A0096234601925F
:102160005E495F485F4E4FF47A7209F0B3FF5E4AF2
:102170000095234601925D495D484FF47A7209F05B
:10218000A9FF5C4A0095234601925B495B484FF4E6
:102190007A7209F09FFF5A4A0095234601925949E5
:1021A00059484FF47A7209F095FF584A0095234632
:1021B0000192574957484FF47A7209F08BFF4FF05C
:1021C000050B554A01922346CDF800B053495448B7
:1021D0004FF47A7209F07EFF524A01922346CDF8FD
:1021E00000B0514951484FF47A72032509F072FF4B
:1021F0004F4A0192234600954E494F484FF448728A
:1022000009F068FF4D4A0192234600954C494D481C
:102210004FF4967209F05EFF4B4A01929CE000BFBA
:10222000200C0020E40A00204C0C0020740B00203D
:10223000B80B0020A40B0020700B0020780B0020AE
:10224000B00A0020B40B0020A8090020300A0020AA
:102250008C0C00209C0B0020340A0020980B0020DE
:10226000F80A0020940C0020900C0020E0090020C7
:10227000440C0020500C0020D00A0020C00B00208D
:10228000500B0020AC0B0020A00B0020140B0020F2
:10229000F00A0020E4090020B0AE0208D12E0008A8
:1022A000DC090020C0AE0208AD180008D0AE02085C
:1022B000B5130008D80A0020DCAE02081D1900087A
:1022C000FC0B0020E8AE0208191A00081C0B0020C5
:1022D000FCAE0208411B0008E80A00200CAF02080F
:1022E000258D0008F40B0020840C00201CAF020890
:1022F000D18A0008B00B002030AF020869540008F2
:10230000880C002044AF020851760008F40A00202F
:1023100058AF020891800008D40A00206CAF020870
:10232000D15F0008B00C002084AF02087968000873
:10233000540B002098AF020825350008DC0A002065
:10234000A4AF02087D320008CC0A0020040C002053
:10235000180B0020480C0020234600954B494C48A0
:102360004FF4487209F0B6FE4A4A0192234600959E
:1023700049494A484FF47A7209F0ACFE484A019242
:1023800023460095474948484FF4487209F0A2FE99
:1023900023460095CDF804A044494548C82209F0D9
:1023A00099FE23460095CDF8049042494248C82240
:1023B00009F090FE23460095CDF804803F4940483F
:1023C0004FF4FA7209F086FE2346009501973D49C5
:1023D0003D484FF4FA7209F07DFE3C4900952346D2
:1023E0004FF4FA7201963A4809F074FE394B1868B6
:1023F0000AF0E4FD274A10680AF0E0FD284B18684F
:102400000AF0DCFDDAF800000AF0D8FDD9F8000087
:102410000AF0D4FDD8F800000AF0D0FD38680AF0C0
:10242000CDFD2D4A10680AF0C9FD30680AF0C6FDDE
:102430002A4B18680AF0C2FD294A10680AF0BEFD4E
:10244000284B18680AF0BAFD274A10680AF0B6FD52
:10245000264B18680AF0B2FD254A10680AF0AEFD56
:10246000244B18680AF0AAFD234A10680AF0A6FD5A
:10247000224B18680AF0A2FD214A10680AF09EFD5E
:102480000AF02EF9204603B0BDE8F08FB4AF020881
:10249000953B0008E00A0020C0AF0208A533000801
:1024A000BC0B0020CCAF02081D380008D8AF0208D2
:1024B000B1270008E4AF0208C1280008ECAF020809
:1024C000ED290008F8AF02081543000808B002081B
:1024D00041450008DC0A0020CC0A0020840C0020C2
:1024E000B00B0020880C0020F40A0020E80A00202D
:1024F000D40A0020B00C0020D80A0020FC0B0020D9
:102500001C0B002010B4032A28D8DFE802F0402B6F
:102510001B020A1F48BFCA1CD2100132C2EBC20202
:1025200092002C4C02EBD002042BA25C43D02E2A4A
:1025300014D1043010F0070F14BF002001205DF803
:10254000044B70470331C9100139C1EBC101890047
:1025500001EBD0011F4B5B5C2E2BEAD000205DF815
:10256000044B70471B4CCB08021FC3EBC30348BF8F
:10257000C21C04EB830303EBE20253782E2B20D022
:102580006C29EBD1DB2894BF00200120E7E7114A3A
:10259000CB08C3EBC30302EB8303C21C03EBD203E0
:1025A00013F8013C2E2B10D06C29D7D104288CBFF6
:1025B00000200120D3E77028B9D15329B7D90120D1
:1025C000CDE70B1D5A07FAD0DAE70B1D5B07F6D0F3
:1025D000EAE700BF14B002082DE9F04F85B004AB64
:1025E00003E903009DF808B09DF809A09DF80A9042
:1025F0009DF80B809DF80C709DF80D609DF80E50B5
:102600009DF80F408AEA0B0389EA030388EA030373
:102610007B4073406B406340AA20019308F054F85C
:10262000584608F051F8504608F04EF8484608F071
:102630004BF8404608F048F8384608F045F8304670
:1026400008F042F8284608F03FF8204608F03CF829
:10265000019B184608F038F8552005B0BDE8F04F4A
:1026600008F032B82DE9F04383B002AB03E9030070
:102670009DF800809DF801709DF802509DF8036060
:102680009DF80440AA2008F01FF8404608F01CF806
:1026900087EA0809384608F017F885EA090930463C
:1026A00008F012F886EA0909284608F00DF884EACD
:1026B0000909204608F008F8484608F005F85520B2
:1026C00003B0BDE8F04307F0FFBF00BF2DE9F043C2
:1026D00083B002AB03E903009DF800809DF8017010
:1026E0009DF803509DF804609DF80540AA2007F06E
:1026F000EBFF404607F0E8FF87EA0809384607F095
:10270000E3FF85EA0909304607F0DEFF86EA09099A
:10271000284607F0D9FF84EA0909204607F0D4FFCC
:10272000484607F0D1FF552003B0BDE8F04307F05D
:10273000CBBF00BFFEE700BFFEE700BF10B54FF400
:1027400053700BF0A9FD0A494FF453720446FDF78C
:1027500039FD00210322012008F072F90021C4F89C
:1027600048030A460B4608F019FB204610BD00BF7F
:102770005CB3020810B54FF453700BF08DFD0A499D
:102780004FF453720446FDF71DFD00210322012082
:1027900008F056F900210B46C4F848030A4608F031
:1027A000FDFA024B1C6010BD5CB30208CC0C00208B
:1027B0002DE9F04FADB009F0EBFF05903848394EE8
:1027C00014F0F6FC8C228346374909A8FDF7FAFC81
:1027D000002304228DF813200693079303E005A835
:1027E00014210AF017F9314B4FF0FF31186808F047
:1027F0008BFE0128F3D1306806A9002208F0FCFC0A
:102800000128F8D00DF124080027294B40461B6809
:10281000039359461DF0AAF80021044658461DF0BE
:102820006DF882463846FDF7C7FF0022214BFDF7C1
:1028300077FE04EBD4744FEA6409044650460D4613
:10284000FDF7BAFF02460B4620462946FEF71AF866
:102850000022194BFDF764FEFEF7AEFAC9F1A0099C
:102860004FF6FF730FFA89F902B20193013743461D
:1028700049460398CDF800B01CF036FE022F08F14F
:102880004608C2D19DF81B30002BA8D00B4B0DF190
:10289000130118686422002308F080FA9FE700BF44
:1028A000A4B602084C0C002020A00208F00A002068
:1028B000A49F01200000E03F00005E40200C0020AB
:1028C0002DE9F04F99B009F063FF05903F48404C67
:1028D00014F06EFC04F13006834609AF206861688D
:1028E000A268E3683D460FC51034B4422F46F5D1C7
:1028F00020686168A268374E2B460024042507C370
:102900008DF813500694079403E005A814210AF0EB
:1029100081F8314B4FF0FF31186808F0F5FD0128C0
:10292000F3D1306806A9002208F066FC0128F8D02F
:102930000DF124080027294B40461B680393594694
:102940001DF014F80021044658461CF0D7FF8246BB
:102950003846FDF731FF0022214BFDF7E1FD04EB86
:10296000D4744FEA6409044650460D46FDF724FF2F
:1029700002460B4620462946FDF784FF0022194BEC
:10298000FDF7CEFDFEF718FAC9F1A0094FF6FF7367
:102990000FFA89F902B20193013743464946039879
:1029A000CDF800B01CF0A0FD022F08F11E08C2D126
:1029B0009DF81B30002BA8D00B4B0DF113011868AC
:1029C0006422002308F0EAF99FE700BFA4B60208DA
:1029D000ACA002084C0C0020F00A0020A49F0120AB
:1029E0000000E03F00005E40200C00202DE9F04F89
:1029F000ADF5377D09F0CCFE0B902F482F4F304DB1
:102A0000304C14F0D5FB7968BA68B7F80CC097F869
:102A10000EE00646386814AB07C340F2762207F191
:102A2000100118A8A3F800C083F802E0FDF7CAFB64
:102A30000023032298469A4605930493089309932A
:102A4000069307930C930D938DF828204FF00109FE
:102A500003E00BA8142109F0DDFF1B4908684FF0C3
:102A6000FF3108F051FD0128F3D120680CA90022A4
:102A700008F0C2FB0128F8D09DF83130192B00F284
:102A80009881079A42B909F1FF395FFA89F9B9F1DA
:102A9000010F38BF4FF001090798421ED2B20792CA
:102AA00009F1FF32032A00F2C181DFE812F06C0164
:102AB000530130010F0000BFA4B60208E8A00208CD
:102AC000A49F01204C0C0020F00A00204FF619634F
:102AD00000935A21C3220423286815F0E7FA9DF8D1
:102AE00030209DF83130192A5FFA88F14FFA88FBBF
:102AF00000F2A381002005907D3B062B02D8002325
:102B0000069307937D3A062A02D800200890099080
:102B10008DF83D100499059ACDF838A04FF6FF7353
:102B20008DF83C108DF83E2028680096019300290E
:102B300000F07681DC2191220DF24A231CF0D4FCB6
:102B4000C04952464FF6FF7711A822F0FBFD2868D6
:102B50000096DC21A02211AB01971CF0C5FC14A942
:102B60000BEB8B030B44AF22286801970096DC2106
:102B70001CF0BAFC059A002A00F04881B249BE2236
:102B800008680DF24A238DE8C000DC211CF0ACFC83
:102B90001E234FF4A5714FF478424FF6E077286872
:102BA0000093019102924121502218F0FDF828680B
:102BB000009769215022042315F078FA28680097BD
:102BC0007D21502204234FF0000B15F06FFA286886
:102BD000009791210E275022042315F067FA9B4994
:102BE00000970197AF2246232868CDF808B0CDF8AA
:102BF0000CB01FF0B7FD0097019795492868CDF8F4
:102C000008B0CD224623CDF80CB01FF0ABFD0097E5
:102C1000019790492868CDF808B0EB224623CDF8FB
:102C20000CB01FF09FFD009701978B492868CDF8E5
:102C300008B04FF6FF7740F209124623CDF80CB0EA
:102C40001FF090FD286800966421782218AB019748
:102C50001CF04AFC2868642191220DF599738DE8D7
:102C6000C0001CF041FC28686421A0225EAB8DE806
:102C7000C0001CF039FC28686421AF220DF5DF7319
:102C80008DE8C0001CF030FC28686421BE2281ABB6
:102C90008DE8C0001CF028FC28687321D7220DF1B4
:102CA000A6038DE8C0001CF01FFC3BAB28688DE834
:102CB000C0007321E1221CF017FC9DF83330002B7B
:102CC00040F08A809DF83430002B3FF4C2AE634957
:102CD000032308688DF828300EA9002364221F46BC
:102CE00008F05CF85E4A8DF83D7010680E973B4620
:102CF0000AA964228DF83C708DF83E70B84608F041
:102D00004DF8BA46059704974FF00109A1E64FF632
:102D100020530093B42228685A21042315F0C6F9E1
:102D20009DF83020192A00F2A280099939B908F1DA
:102D3000FF384FFA88F828EAE8785FFA88F80998A7
:102D4000431EDBB209935FFA88F19DF831304FFAE8
:102D500088FBD1E640F2FF730093A52228685A2130
:102D6000042315F0A3F99DF83020192A00F28E8073
:102D7000AAF1320A2AEAEA7A9DF831305FFA88F13C
:102D80004FFA88FBB8E64FF4784300935A21962215
:102D90000423286815F08AF99DF830209DF8313019
:102DA000192A5FFA88F14FFA88FB5BD8002004905B
:102DB000A2E6C72B7FF674AE069941B909F1010965
:102DC0005FFA89F9B9F1040F28BF4FF0040906989A
:102DD000421CD2B2069263E6214A8DF83DB01068DB
:102DE000CDF838B04FF001090AA964225B468DF88E
:102DF0003CB08DF83EB08DF82890D84607F0CEFF55
:102E0000DA46CDF814B0CDF810B05BE70E4BDC21FC
:102E10001868BE228DE8C000A4AB1CF065FBB7E6C5
:102E2000DC219122A4AB1CF05FFB89E69DF83020E9
:102E30005FFA88F14FFA88FB5EE6C72A84BF01205B
:102E4000059059E6B4B60208A49F0120DC0B0020CF
:102E50007C0B0020000A0020380B0020500C0020C2
:102E6000200C0020C72A84BF0120049044E6C72A12
:102E700027D90899A9B15FFA88F14FFA88FB089819
:102E8000431CDBB208939DF8313035E6C72A18D9C8
:102E90000AF1320A9DF831305FFA88F14FFA88FB67
:102EA0002AE608F10101C9B25FFA81F84FFA88FCFD
:102EB000BCF1010FC9BF4FF0020BE3465946D8469B
:102EC000DDE79DF831305FFA88F14FFA88FB13E6B1
:102ED0002DE9F04F83B002AC012304F8083DAF4D5B
:102EE000DFF8F8B2DFF8F8A2DFF8F892AC4FDFF8BD
:102EF000F8828DF80730002602E09DF807308BB984
:102F00009DF80730002BF8D1286869464FF0FF3252
:102F100008F072F9012808BF8DF807009DF8073006
:102F2000002BEDD09DF80030013B092B00F2E4802E
:102F3000DFE813F004015C01E500A30094008900C0
:102F40006700550037000A00964A106809F014FB24
:102F5000DAF800000AF032F838680AF02FF8924BDD
:102F600018680AF02BF8914A10680AF027F8904B7D
:102F700018680AF023F88F4A10680AF01FF88E4B81
:102F800018680AF01BF88D4A10680AF017F83868BC
:102F90000AF014F8D8F800000AF010F88DF807606D
:102FA000AEE7D8F8000009F0E7FA854A106809F0A2
:102FB000E3FA844B18680AF001F8834A106809F0B4
:102FC000FDFF386809F0FAFF7B4B186809F0F6FF3F
:102FD0007A4A106809F0F2FF8DF8076090E73868C8
:102FE00009F0CAFA764B186809F0E8FFD9F8000032
:102FF00009F0E4FFD8F8000009F0E0FF8DF8076061
:103000007EE7724B186809F0B7FADAF8000009F0A9
:10301000D5FF386809F0D2FF634A106809F0CEFF87
:10302000624B186809F0CAFF614A106809F0C6FFD0
:10303000604B186809F0C2FF5F4A106809F0BEFFD4
:103040005E4B1868A1E7624B186809F095FADBF847
:10305000000009F0B3FF8DF8076051E7D9F80000D0
:1030600009F08AFA564A106809F086FADBF800007F
:1030700009F0A4FF8DF8076042E7564B186809F085
:103080007BFADBF8000009F099FFDAF8000009F09C
:1030900095FF514A106809F091FF4C4B186809F0F0
:1030A0008DFF404A106809F089FF494B186809F004
:1030B00085FFD9F8000009F081FF386809F07EFF2C
:1030C000D8F8000009F07AFF374A106809F076FF57
:1030D000364B186809F072FF354A106809F06EFF28
:1030E000344B186809F06AFF334A106809F066FF2C
:1030F000324B186809F062FF8DF8076000E7DAF8D4
:10310000000009F039FADBF8000009F057FF324AF5
:10311000106809F053FF2F4B186809F04FFF2B4A36
:10312000106809F04BFF1F4B186809F047FF284A49
:10313000106809F043FFD9F8000026E7DBF800002B
:1031400009F01AFA01F088FDDAF8000009F036FFFC
:10315000214B186809F032FF1E4A106809F02EFF53
:103160001A4B186809F02AFF0E4A106809F026FF6A
:10317000174B186809F022FFD9F8000009F01EFF6C
:10318000386809F01BFFD8F8000009F017FF0D4A56
:10319000106809F013FF0C4B186893E7200C00200F
:1031A000B80B0020180B0020840C0020B00B00206E
:1031B000880C0020F40A0020E80A0020D40A00202D
:1031C000D80A00201C0B0020FC0B0020040C00205F
:1031D000480C0020BC0B0020E00A0020540B00200B
:1031E000DC0A0020CC0A0020F40B00201A4A1068E8
:1031F00009F0C2F9DBF8000009F0E0FEDAF800009F
:1032000009F0DCFE154B186809F0D8FE144A106866
:1032100009F0D4FE134B186809F0D0FE124A10686A
:1032200009F0CCFED9F8000009F0C8FE386809F0B2
:10323000C5FE386809F0C2FE0C4B186809F0BEFEE6
:103240000B4A106809F0BAFE0A4B186809F0B6FE7E
:10325000094A1068B6E600BFE00A0020BC0B002057
:10326000040C0020180B0020480C0020840C0020C7
:10327000B00B0020880C0020F40A00202DE9F04F4C
:1032800089B009F085FA092200233B4D3B4CDFF859
:1032900008B1DFF808A1DFF80891394F394E0590E1
:1032A0008DF800208DF808304FF0010803E005A8E4
:1032B000142109F0AFFB28684FF0FF3108F024F922
:1032C0000128F4D1206806A9002207F095FF012803
:1032D000F8D00022134604A9DBF800008DF8108016
:1032E00007F05CFD002001F02BFB06A900236422FF
:1032F000DAF8000007F052FDD9F8000009F03CF9B7
:10330000214A106809F038F9386809F035F9306851
:1033100009F032F91D4B186809F02EF91C4A02A970
:103320001068002207F068FF9DF80830012B10D0CC
:10333000022B1ED09DF81E30002BB8D0154A022358
:103340008DF80030106869466422002307F026FDDE
:10335000ADE74FF0070E0F4B8DF800E04FF0000285
:103360008DF80820186869466422002307F016FDCE
:103370009DE74FF00A0EEEE7F00A00204C0C00200B
:10338000880C0020F40A0020B00B0020E80A00207E
:103390008C0C0020200C0020300A0020700B002034
:1033A000840C00202DE9F04FCDB009F0F1F9039025
:1033B0005648DFF86CA1564C564D13F0F9FE4FF409
:1033C0008C720746544906A8FCF7FCFE0023032232
:1033D00099469B46049305938DF808204FF0010809
:1033E0004FF6FF7603E003A8142109F013FBDAF887
:1033F00000004FF0FF3108F087F80128F3D1206872
:1034000004A9002207F0F8FE0128F8D09DF8113039
:10341000192B4BD8BBF1000F08D108F1FF385FFA28
:1034200088F8B8F1010F38BF4FF001080BF1FF3BEE
:103430005FFA8BFB7D3B062B9CBF4FF00009CB4610
:10344000B8F1010F45D0B8F1020F50D028680097AD
:103450006E21642206AB01961CF046F8286800979E
:103460006E2182220DF15E0301961CF03DF8286862
:1034700000976E21912229AB01961CF035F80DF1D1
:10348000EA032868009701966E21DC221CF02CF8D4
:103490009DF81430002BA6D0204B02A91868642296
:1034A000002307F07BFC4FF001089CE7C72BC1D934
:1034B000B9F1000F08D108F101085FFA88F8B8F1F6
:1034C000020F28BF4FF0020809F101095FFA89F9DC
:1034D000B0E74FF4784300934FF0030E28688DF85F
:1034E00008E064218722042314F0E0FDAEE740F2F7
:1034F000FF7300934FF0010E28688DF808E06421F7
:103500009622042314F0D2FDA0E700BFA4B602085F
:103510004C0C0020A49F012070A30208200C002066
:10352000F00A00202DE9F04FADF5197D09F030F9D2
:103530000990AE48DFF8E0B2AD4CAE4D13F038FE66
:103540004FF40C728046AC490CA8FCF73BFE4FF0E0
:103550000109002303229A4605930A930B938DF8E1
:1035600018208DF8239003E009A8142109F052FADD
:10357000DBF800004FF0FF3107F0C6FF0128F3D160
:1035800020680AA9002207F037FE0128F8D09B49DD
:103590000022134608680DF1230107F0FFFB9DF898
:1035A00029309DF82C200492192B00F2D88005991F
:1035B00049B909F1FF395FFA89F90599B9F1010FA4
:1035C00038BF4FF001094A1ED2B205927D3B062B4F
:1035D0009CBF4FF0000ACDF814A0B9F1010F00F024
:1035E000D280B9F1020F00F0DB80B9F1030F00F0D7
:1035F000E480B9F1040F00F0ED804FF6E0761E2371
:103600004FF4A5722868009301920296412150223E
:1036100017F0CAFB2868009669215022042314F091
:1036200045FD286800967D21502204230E2714F0C2
:103630003DFD28680096912100265022042314F0B5
:1036400035FD6F4900970197AF22462328680296FF
:1036500003961FF087F8009701976A492868029639
:10366000CD22462303961FF07DF800970197664907
:1036700028680296EB22462303961FF073F8009702
:1036800001976249286802964FF6FF7740F20912C7
:10369000462303961FF066F82868CDF80080822143
:1036A00078220CAB01971BF01FFF2868019782213D
:1036B0008C220DF17603CDF800801BF015FF2868F1
:1036C000019782219B222FABCDF800801BF00CFFCD
:1036D000286801978221AA220DF58173CDF8008018
:1036E0001BF002FF286801978221B92252ABCDF866
:1036F00000801BF0F9FE286801978221DC220DF57D
:10370000C773CDF800801BF0EFFE28680197A52154
:10371000232275ABCDF800801BF0E6FE322228682C
:103720000197CDF80080B9210DF21A231BF0DCFEC1
:10373000049A002A3FF418AF354B08A94FF001094D
:1037400018688DF820903346642207F027FB314932
:1037500033460868642206A907F020FB04E7C72B5C
:103760007FF634AFBAF1000F08D109F101095FFA11
:1037700089F9B9F1040F28BF4FF004090AF1010AD1
:103780005FFA8AFA22E74FF4784300930326286809
:103790008DF8186078219122042314F087FC2CE71F
:1037A00040F2FF730093052628688DF81860782191
:1037B000A022042314F07AFC1FE74FF62053009355
:1037C000062628688DF818607821AF22042314F0AB
:1037D0006DFC12E74FF61963009328688DF8189076
:1037E0007821BE224B4614F061FC06E7A4B602081D
:1037F0004C0C0020A49F012088A40208B40B0020D8
:10380000DC0B00207C0B0020000A0020380B00207D
:10381000300A0020200C0020F00A00202DE9F04F93
:10382000DFB008F0B5FF00260B900D480C960D9602
:1038300013F0BEFC0B490C4C0C4D07464FF48C7238
:1038400018A8FCF7BFFC01230596B2460996079617
:1038500008960696B1460E960F968DF82B300BE023
:10386000A4B60208B8A602084C0C0020A49F0120B0
:103870000BA8142109F0CEF8B04908684FF0FF31C9
:1038800007F042FE0128F3D120680EA9002207F0BC
:10389000B3FC0128F8D0AA4A0CA91068002207F04E
:1038A000ABFCA84B0DA91868002207F0A5FC0C9AE8
:1038B00006990D9B9145B8BF9146494502DA4A46A3
:1038C00006928946089A914503DD4A46DDF8209024
:1038D00008920799894502DD4A4607928946069A69
:1038E00008998A4202DD089206910A4607998A429F
:1038F000C4BF07920691079A08998A4203DA0A46DA
:10390000079908910792099A934202DD1A46099B8A
:1039100009929A4502DA1A46534692460599099A3F
:103920009942B8BF19465245059103DD0599CDF876
:1039300024A09246099B8B42C8BF0593059AC8BF35
:103940000991924502DD5346059392464FF6FF7664
:103950004FF000087C49079ACDF8308010A8CDF8C8
:10396000348021F0EFFE10AB286800972821502208
:1039700001961BF0B9FD7549089A10A821F0E2FEE6
:1039800010AB2868019628215A2200971BF0ACFD45
:103990006F49069A10A821F0D5FE10AB2868019651
:1039A0002821642200971BF09FFD6A494A4610A80F
:1039B00021F0C8FE10AB2868019628216E220097DE
:1039C0001BF092FD6049059A10A821F0BBFE10ABD8
:1039D000286801962821A02200971BF085FD5B49ED
:1039E000524610A821F0AEFE10AB2868019628219F
:1039F000AA2200971BF078FD5549524610A821F0E5
:103A0000A1FE10AB286801962821B42200971BF074
:103A10006BFD5049524610A821F094FE286801968B
:103A20002821BE2210AB00971BF05EFD286801968E
:103A300082211E2218AB00971BF056FD28680196C4
:103A40001E213C223BAB00971BF04EFD4FF6E07B66
:103A50004FF01E0C4FF4A573CDF800C028680193F9
:103A6000CDF808B0DC215A220F23CDF810C017F092
:103A70009BF92868CDF800B0FA215A22042314F0EB
:103A800015FB2868CDF800B040F209115A22042332
:103A900014F00CFB2868CDF800B04FF48C715A225A
:103AA000042314F003FBDDF810C0286801964FF0E2
:103AB0000E0B61468C220DF5997300971BF014FDD7
:103AC00025492868CDF80880EB229623CDF80C8094
:103AD000CDF800B0CDF804B01EF044FE1F492868B0
:103AE000CDF800B040F209129623CDF804B0CDF81D
:103AF0000880CDF80C801EF035FE19492868CDF8F5
:103B000000B0EB22AA23CDF804B0CDF80880CDF8A0
:103B10000C801EF027FE13492868CDF800B040F253
:103B20000912AA23CDF804B0CDF80880CDF80C8096
:103B30001EF018FE0DF1A603286815E0F00A00201B
:103B4000780B0020B00A0020B8B60208C0B6020800
:103B5000C8B60208D0B60208DC0B00207C0B00209F
:103B6000000A0020380B0020019600977821DC2203
:103B70001BF0BAFC9DF83B30002B3FF479AE0449B2
:103B80004346086864220DF12B0107F007F96FE640
:103B9000200C00202DE9F04FADF5377D08F0F8FD41
:103BA00016AF0F907748059713F002FB00230746E6
:103BB0007549129340F2762218A813931493159323
:103BC000169317938DF838308DF839300893FCF739
:103BD000F9FA08996D4D6E4C6E4E0A914FF0010A3C
:103BE000032302220B9189468DF83030D346099287
:103BF000B84628684FF0FF3107F086FC0128F8D15D
:103C0000206812A9002207F0F7FA0128F8D0624BC9
:103C100014A91868002207F0EFFAB9F1000F39D1A2
:103C20009DF84930192B00F2E3820B9F7B1E002F79
:103C3000DBB208BF4FF0010A0B93BAF1020F3068F4
:103C400040F0E78240F2FF730093642104238C224A
:103C500014F02CFA9DF84830192B00F21583089FB8
:103C60003FB9099F7A1ED2B2022A38BF0222089FAA
:103C700009927A1ED2B208929DF849207D3A062A0E
:103C800002D800270A970B97089F7D3B062B98BF09
:103C900000270897BAF1010F00F0D682099FBB1EDA
:103CA000032B1AD8DFE803F03D5525020E2200232E
:103CB000009201920293039370226C238DF84020AE
:103CC0008DF84130306835490127FA2282238DF87A
:103CD00042701EF047FD4FF0050B9DF85230013B3E
:103CE000042B7AD8DFE813F0B201C2019A018201F5
:103CF00062000E220023009201920293039380221D
:103D00006C238DF840208DF841303068244901271C
:103D1000FA2282238DF842704FF0040B1EF022FD30
:103D2000DBE70E220023009201920293039370229C
:103D300054238DF840208DF841303068194901270F
:103D4000FA2282238DF842704FF0020B1EF00AFD1A
:103D5000C3E70E2200230092019202930393602294
:103D60006C238DF840208DF8413030680E490127D2
:103D7000FA2282238DF842704FF0030B1EF0F2FC02
:103D8000ABE700BFA4B60208D0A70208F00A0020E3
:103D90004C0C0020A49F0120740B00206C0C002010
:103DA000B40A0020DC0B0020180A00200E22002399
:103DB000009201920293039370226C2301278DF8E5
:103DC00040208DF841308DF842703068B349FA22B6
:103DD0009B2305271EF0C6FC06979DF84C300BB1BF
:103DE00089F00109059F8DF85AB08DF85C9097E82D
:103DF0000300FEF7F1FB4FF6FF719DF85470306839
:103E0000019150226E2118ABCDF8008007971BF06E
:103E10006BFB4FF6FF713068019173226E210DF537
:103E20009973CDF800801BF05FFB4FF6FF7230688E
:103E300001926E2187225EABCDF800801BF054FB0F
:103E40004FF6FF73306801936E219B220DF24A23D7
:103E5000CDF800801BF048FB4FF6FF7130680191F0
:103E6000C8226E210DF1A603CDF800801BF03CFBAB
:103E70008B4F3068CDF800804FF6FF7201926E21B3
:103E8000DC223BAB1BF030FB3868CDF80080B9F189
:103E9000000F00F08C81BBF1010F00F007824FF69C
:103EA000FF770197142187220DF5DF731BF01CFBB0
:103EB000079F002F00F08B81069F3068CDF80080AF
:103EC000012F4FF6FF7701974FF0DC0100F0CB8117
:103ED000872281AB1BF008FB30680197CDF800808A
:103EE00014219B220DF5DF731BF0FEFA4FF0010A3F
:103EF000B9F1000F00F054816A49086809F05EF8D2
:103F0000694A10A910680023642206F047FF674B36
:103F1000069F18688DF839700EA9642200238DF869
:103F200038B006F03BFF6249624F086864220EA970
:103F3000002306F033FF00220221134638688DF873
:103F400036105D4F0DF1360106F028FF00220121E9
:103F500013468DF8371038680DF1370106F01EFF53
:103F60009DF83830012B00F0B481544F386808F0C8
:103F700003FB5349086808F0FFFA414618A8D6F831
:103F800000901BF0F3FC0021074640461BF0B6FCF6
:103F9000FCF712FC00224B4BFCF774FC00224A4B4E
:103FA000FCF7BEFA07EBD777FCF706FF7F10C7F1E7
:103FB000A0074FF6FF733FB202B20193394648465D
:103FC000CDF8008018AB1BF08FFA069FBBF1010FF4
:103FD00008BFBB46ABF1020BBBF1030F00F28C80B4
:103FE000DFE81BF0CD00BC00AB007A000E220023FE
:103FF000009201920293039380226C2301278DF893
:1040000040208DF841308DF8427030682F49FA22F7
:104010009B2304271EF0A6FB0697DEE60E22002354
:10402000009201920293039360226C2301278DF882
:1040300040208DF841308DF8427030682449FA22D2
:104040009B2303271EF08EFB0697C6E632214FF412
:104050009B724FF6E0738DE80E003068FF219B22C3
:104060000623012716F0A0FE0697B6E60E220023CF
:1040700000920192029303937022542301278DF83A
:1040800040208DF841308DF8427030681149FA2295
:104090009B2302271EF066FB06979EE66C0C002011
:1040A000A49F0120D80A0020C00B0020440C00204F
:1040B000500B0020300A0020D00A0020FC0B00200A
:1040C000D40A00200000E03F00005E40B40A002057
:1040D000180A0020DC0B0020864A874F106808F081
:1040E0004BFA864B186808F047FA386808F044FA2B
:1040F0008349086808F062FF8249FA224FF00009FC
:104100000692082708688DF838208DF839204B462C
:104110000CA964228DF830708DF852908DF854906F
:10412000022706F03BFEDDF818B009974FF0010AB0
:104130000FA8142108F06EFC5BE56E4A704F106802
:1041400008F01AFA6C4B186808F016FA386808F08C
:1041500013FA6A49086808F031FFCDE7664A684FEC
:10416000106808F009FA654B186808F005FA386815
:1041700008F002FA5F49086808F020FFBCE75D4AD2
:104180005F4F106808F0F8F95C4B186808F0F4F914
:10419000386808F0F1F95849086808F00FFFABE7F4
:1041A0009DF84B30002B41D14FF00009C0E7BBF127
:1041B000010F00F085804FF6FF72019214218722D3
:1041C000A4AB1BF091F9079F002F7FF475AE4FF65B
:1041D000FF7301933068CDF8008014219B22A4ABBB
:1041E0001BF082F9B9F1000FDAD04FF001099FE717
:1041F000C72B7FF622AD0A9F3068002F07F101031D
:1042000008BF4FF0020ADBB2BAF1020F0A933FF483
:1042100019AD4FF47843009378220423642113F0FE
:1042200045FF9DF849209DF8483027E535494FF076
:10423000010A08688DF830A00CA964220023022727
:1042400006F0ACFD0997AFE732214FF49B724FF6B1
:10425000E0738DE80E003068FF217822062316F007
:10426000A3FDD34639E5732281AB1BF03DF93068DD
:104270000197CDF8008014219B220DF5DF731BF010
:1042800033F94FF0020A33E6C72B2FD9089F3FB905
:10429000099F7A1CD2B2052A28BF0522089F0992DD
:1042A000791EC9B29DF849200891E7E44FF6FF73E3
:1042B0000193142173220DF5DF731BF015F9F7E557
:1042C0004FF6FF71019173221421A4AB1BF00CF97E
:1042D000EEE50D49086808F04FF90C4A106808F03F
:1042E0004BF90B4B186808F047F96EE69DF849202A
:1042F000C4E400BFB00B0020840C0020880C002018
:10430000F40A0020200C0020E80A00201C0B0020EA
:10431000B00C00202DE9F04FB9B008F039FA0D903B
:104320007448754DDFF804A2DFF80492734CDFF88F
:1043300004B2DFF80482724F12F03AFF714905901F
:104340008C2215A8FBF73EFF042101230026022240
:104350008DF818108DF828300EA910AB1296139610
:104360008DF82F608DF820608DF82E200491039336
:1043700028684FF0FF3107F0C7F8012872D10022FA
:1043800013460DF12E01DAF8000006F007FDD9F80A
:1043900000000AA9002206F02FFF206812A90022BF
:1043A00006F02AFF0128F8D05749002208680DF1CD
:1043B0002F0106F021FF012800F09580002000F079
:1043C000BFFA9DF83030012B5FD0D8F8000008F01C
:1043D000D3F8386808F0D0F8059B00934FF6FF73C8
:1043E000DBF800000193E621822215AB1BF07CF87C
:1043F000464900220868134612A906F0CFFC444B38
:1044000008A91868002206F0F7FE9DF8203073BB5B
:104410009DF84E3013B99DF828300BBB9DF8303015
:10442000012B53D0D8F8000008F0C8FD04238DF804
:104430004330039B93E80300FEF748F9386808F01F
:10444000BDFD34494FF0090308688DF8183008F0B5
:10445000B5FD314964220868002306A906F09EFCD8
:104460008DF828600DA8142108F0D4FA80E72A49B5
:104470008DF820604FF0070E08688DF818E006A947
:104480006422002306F08AFCEAE72249086808F063
:1044900073F8224B186808F06FF82149086808F093
:1044A0006BF8059B00934FF6FF73DBF80000019358
:1044B000E6210DF19A0382221BF016F81949002219
:1044C0001346086812A906F069FC98E7134B1868B0
:1044D00008F074FD04238DF83C30049B93E803003E
:1044E000FEF7C0F8ADE7104B0CA91868002206F0E3
:1044F00083FE63E7A4B60208F00A00204C0C0020FB
:10450000D40A002048AA0208D00A0020E0090020AE
:104510008C0C0020E80A0020200C00201C0B00203E
:10452000B00C0020700B0020440C0020300A00204A
:10453000A40B0020A49F0120FC0B00200000000021
:104540002DE9F04FADF50D7D08F022F90EA9099087
:10455000A748029112F02CFE00234FF4F572834617
:10456000A4490A9311A80B930C930D930E930F93E8
:104570000593FBF727FE0323059A8DF820300123CE
:104580009D4E06929146049303E009A8142108F079
:1045900041FA9A4908684FF0FF3106F0B5FF01284B
:1045A000F3D130680AA9002206F026FE0128F8D0CF
:1045B000934A0CA91068002206F01EFEB9F1000F04
:1045C0007DD10DF144084F46CDF81C908D4B4046EF
:1045D0001B68039359461BF0C9F90021044658464D
:1045E0001BF08CF982463846FCF7E6F80022864B31
:1045F000FBF796FF04EBD4744FEA64090446504677
:104600000D46FCF7D9F802460B4620462946FCF732
:1046100039F900227D4BFBF783FFFCF7CDFBC9F195
:10462000A0094FF6FF730FFA89F902B2019301371F
:10463000434649460398CDF800B01AF055FF042FC1
:1046400008F14608C2D19DF82930DDF81C90192BDD
:1046500000F23D81069939B904994A1ED2B2012A65
:1046600038BF0122069904924A1ED2B20692049AD9
:10467000012A00F04081022A1BD1624A00215846DB
:1046800014681BF03BF9FCF797F80022604BFCF72D
:10469000F9F8604B0022FBF743FFFCF78DFB1F236B
:1046A00002B2009320460623142113F0FFFC9DF86C
:1046B00029307D3B062B02D80023059306939DF8F5
:1046C0002C302BB10499012940F0DF8089F00109D9
:1046D000029A8DF83E9092E80300FDF77DFF9DF869
:1046E00037309DF83640052B00F09E80B9F1000F61
:1046F0004CD1002C3FF449AF424B59460DF5D170D7
:104700001D681BF033F90021044658461BF0F6F8EB
:10471000FCF752F80022404BFCF7B4F832A3D3E97F
:104720000023FBF7FDFE04EBD474FCF745FB64109B
:10473000C4F1A0044FF6FF7324B202B201932146E4
:104740002846CDF800B00DF5D1731AF0CDFEB9F1C1
:10475000000F3FF41AAF3149002408688DF8364045
:104760008DF837408DF83F408DF83E4008F026FC2C
:104770002B49082208688DF820202346642208A9C6
:1047800006F00CFB0122A1460492FEE61D4A5946A2
:1047900057A815681BF0EAF80021074658461BF099
:1047A000ADF8FCF709F800221E4BFCF76BF80EA3DE
:1047B000D3E90023FBF7B4FE07EBD777FCF7FCFA4D
:1047C0007F10C7F1A0074FF6FF733FB202B201930B
:1047D00039462846CDF800B057AB1AF085FE002CBC
:1047E0003FF4D3AE88E700BF000000000020624025
:1047F000A4B60208D4AA02084C0C0020F00A00203B
:10480000740B0020A49F01200000E03F00005E40E8
:1048100000000C4000405F4000001640D80A002015
:10482000200C00200000124001238DF820303E4B68
:1048300059467AA81D681BF099F80021074658468A
:104840001BF05CF8FBF7B8FF0022384BFCF71AF8B6
:1048500033A3D3E90023FBF763FE07EBD777FCF71D
:10486000ABFA7F10C7F1A0074FF6FF733FB202B259
:10487000019339462846CDF800B07AAB1AF034FEE1
:10488000B9F1000F3FF435AF80E7029A05238DF8A8
:104890003F3092E80300FDF79FFE254B186808F0B3
:1048A0008DFB24490024012508688DF836402346F5
:1048B00008A964228DF837408DF83F408DF82C40D0
:1048C0008DF82050A14606F069FA049500E7C72B41
:1048D0007FF6CDAE059A32B904994A1CD2B2022AAB
:1048E00028BF0222049205994A1CD2B20592049A6A
:1048F000012A7FF4C0AE0C4B002158461C681AF008
:10490000FDFFFBF759FF00220B4BFBF7BBFF0B4BE7
:104910000022FBF705FEFCF74FFA4FF47843BFE6A1
:104920000000000000206240A49F012000001A4007
:10493000D80A0020200C00200000044000405F4006
:104940002DE9F04FDFF800A3BA488BB012F030FC2D
:10495000DAF800304FF0FF31D3F8480306F0D4FD09
:10496000B54B08A91868002206F046FCC8B19DF8AE
:104970002030FD2B00F03181FA2B00F05581FB2B0C
:1049800000F04C81FC2B00F043819DF82120DAF8E7
:104990000010D208C2EBC202920002EBD303302215
:1049A000CA54002204234FF0080EDFF8A082DFF87B
:1049B000A0B2069217460793CDF810E0079A00259B
:1049C00012B22C464FF00809FE0005922DE0312B63
:1049D00077D067D82D2B0AD11F23059A0193DBF8D6
:1049E0000000009229B20FFA89F312F02DFEF21B9B
:1049F00004EB8202DAF800309B5C2E2B30D0702B57
:104A000000F09080632B00F09D80732B00F0A88055
:104A10006F2B00F0B48009F10809B9F1E80F04F137
:104A2000010405F1080500F0B98018F80430332BB3
:104A300026D0CCD9642B67D07C2B51D0342BD6D147
:104A40001F2300220293069B01924FF4877200926B
:104A5000DBF800001AB229B2042313F0D5FDC6E733
:104A6000049BDBF80000A9F105015A1F4FF6196EEF
:104A7000022309B212B28DE8084012F025FFCAE7FE
:104A8000DDF818E0DBF80000B4214FF487721F2333
:104A90008DE80E000FFA89F10FFA8EF2042313F05D
:104AA000B3FDA4E71F2300220293049B00925A2225
:104AB0000192DBF800001AB229B2042313F0A4FD1E
:104AC00095E75A21B4221F238DE80E00049BDBF8E2
:104AD00000001AB20FFA89F1042313F095FD86E75E
:104AE000049ADBF800000FFA82FEA9F10401CDF868
:104AF00000E0DDF818E009B21F2201920B460FFA20
:104B00008EF212F0A1FD72E7059B00934FF4004373
:104B10000193DBF80000059A29B20FFA89F312F02D
:104B200093FD64E7DDF81CE0DBF80000A9F1040167
:104B30004FF61963009309B20FFA8EF2032313F0B4
:104B4000B5FA68E700220E230292039200930193C4
:104B5000DBF80000394969227D231DF003FE5AE786
:104B60000023029300220E23039200930193DBF8AB
:104B70000000334969227D231DF0F4FD4BE700233B
:104B8000029300220E23039200930193DBF80000AE
:104B90002C4969227D231DF0E5FD3CE7DDF81CE092
:104BA000049A0EF108039BB20793069B0832083360
:104BB000F82A049207F10107069308F11C087FF414
:104BC000FDAEDAF800300021D3F848030A460B4660
:104BD00006F0E4F80BB0BDE8F08FDAF80060DFF81B
:104BE00074E000210EEB010372181C6858689D6880
:104BF000DF68745050609560D7601C311C6958693B
:104C00009D699561B1F5527F14615061EAD1C8E6A2
:104C1000DAF800306F2283F8CE21C2E6DAF80030ED
:104C2000732283F8CE21BCE6DAF80030632283F8E1
:104C3000CE21B6E6A4B60208900C0020980A002007
:104C4000580B0020800A0020CC0C002014B0020871
:104C5000A49F01205CB302080E4BDFF83CC0F0B407
:104C60001E6800210CEB010372181C6858689D68CF
:104C7000DF68745050609560D7601C311C695869BA
:104C80009D699561B1F5527F14615061EAD1F0BC24
:104C9000704700BFCC0C00205CB30208104B1149D8
:104CA0005A780868642A0FD0032808D09878121A16
:104CB000D2B2642A5A700FD0742A02D07047742A74
:104CC00004D102230B607047022805D09878024473
:104CD000D2B2642A5A70EFD103230B60704700BF31
:104CE000DC0C002010000020094B1978702904D03A
:104CF0005A786C2A08D06B2A03D95A78013A5A702C
:104D0000704701325A70704701311970704700BF07
:104D1000DC0C0020000000002DE9F04FDFF804A2B9
:104D20007D4E9AF8010096F80180DFF8F09191B07D
:104D3000FBF742FD04460D46A8F10400FBF73CFDDD
:104D400022462B46FBF7EAFBCDE902019AF8000068
:104D50003778FBF731FD82468B463846FBF71CFD62
:104D600052465B46FBF7DAFB02460B46FBF78AFD31
:104D7000CDE9000108F10400FBF71EFD22462B4699
:104D8000FBF7CCFBCDE90401381DFBF715FD5246BE
:104D90005B46FBF7C3FBCDE906014046FBF7FCFC95
:104DA00022462B46FBF7BAFB02460B46FBF76AFD91
:104DB0000446381F0D46FBF7FFFC52465B46FBF7E7
:104DC000ADFB02460B46FBF75DFD22462B46FBF78B
:104DD000A7FBCDE90801DDE9060102460B46FBF71A
:104DE00051FD22462B46FBF79BFBCDE90A01DDE98D
:104DF000020102460B46FBF745FDDDE90023FBF708
:104E00008FFBCDE90C01DDE9040102460B46FBF7FF
:104E100039FDDDE90023FBF783FB0024CDE90E011A
:104E2000A24608AD3846414622460023FDF76AFBFC
:104E300037A3D3E90023B8B1D9F8001010A88C42E9
:104E400000EBCA0710D0D5E9000157E90823FBF7AA
:104E50008BFF002818BFA2460134042C05F1080579
:104E60000DD030787178DFE7D5E90001FBF758FB0A
:104E70000134042CC5E9000105F10805F1D1BAF1AE
:104E8000030F12D8DFE80AF031022417B278337822
:104E900071782248204C1344DBB200226C29337015
:104EA000026002D1DF2B00D922701D4BC3F800A095
:104EB00011B0BDE8F08F7278B178184B114402221E
:104EC0001A60174B7170C3F800A011B0BDE8F08FE5
:104ED0007178B278114B891A03221A60104B7170E5
:104EE000C3F800A011B0BDE8F08F3078B3787278C5
:104EF0000A49094CC31ADBB201206C2A33700860DE
:104F0000D3D1002BD1D1E0232370CEE7AFF30080C3
:104F1000000000000070A740DC0C0020080000200A
:104F200010000020D40C00202DE9F04F2DED028B55
:104F3000DFF800A27C4E9AF8010096F80180DFF8B5
:104F4000EC9191B0FBF738FC04460D46A8F1040043
:104F5000FBF732FC22462B46FBF7E0FACDE90201D3
:104F60009AF800003778FBF727FC82468B463846D4
:104F7000FBF712FC52465B46FBF7D0FA02460B46A3
:104F8000FBF780FCCDE9000108F10400FBF714FCFD
:104F900022462B46FBF7C2FACDE90401381DFBF788
:104FA0000BFC52465B46FBF7B9FACDE906014046D9
:104FB000FBF7F2FB22462B46FBF7B0FA02460B4604
:104FC000FBF760FC0446381F0D46FBF7F5FB524625
:104FD0005B46FBF7A3FA02460B46FBF753FC22465F
:104FE0002B46FBF79DFACDE90801DDE906010246F3
:104FF0000B46FBF747FC22462B46FBF791FACDE91F
:105000000A01DDE9020102460B46FBF73BFCDDE944
:105010000023FBF785FACDE90C01DDE90401024626
:105020000B46FBF72FFCDDE90023FBF779FA4FF085
:10503000000ACDE90E0152463846414600239FED55
:10504000388BD34608ACFDF75DFAF0B1D9F80030E3
:1050500010A99A4501EBCB0217D0D4E9000152E91F
:105060000823FBF79FFE002818BFD3460AF1010A68
:10507000BAF1040F04F1080410D030787178524668
:105080000023FDF73FFA0028E0D10AF1010ABAF146
:10509000040F84ED008B04F10804EED1BBF1030F83
:1050A00012D8DFE80BF029022119B2783378717831
:1050B0001E481D4C1344DBB200226C293370026081
:1050C00002D1DF2B00D92270194BC3F800B011B008
:1050D000BDEC028BBDE8F08F7278B178134B1144B0
:1050E000022271701A60EFE77178B2780F4B891A5B
:1050F000032271701A60E7E73078B37872780B4951
:10510000094CC31ADBB201206C2A33700860DBD172
:10511000002BD9D1E0232370D6E700BFAFF3008086
:105120000000000000000000DC0C00200C0000204B
:1051300010000020D40C00202DE9F04FDFF804828D
:10514000DFF8FCB198F801A08FB0AAF10400FBF7DA
:1051500033FB0022784BFBF7E1F998F80090CDE99A
:1051600000014846FBF718FB0022744BFBF7D6F909
:1051700002460B46FBF786FB04460AF104000D4687
:10518000FBF71AFB00226C4BFBF7C8F9CDE90201D3
:1051900009F10400FBF710FB0022684BFBF7BEF996
:1051A000CDE904015046FBF7F7FA0022624BFBF70A
:1051B000B5F902460B46FBF765FB0646A9F104006C
:1051C0000F46FBF7F9FA00225C4BFBF7A7F9024602
:1051D0000B46FBF757FB32463B46FBF7A1F9CDE9FF
:1051E0000601DDE9040102460B46FBF74BFB3246A4
:1051F0003B46FBF795F9CDE90801DDE900010246E0
:105200000B46FBF73FFB22462B46FBF789F9CDE91E
:105210000A01DDE9020102460B46FBF733FB224699
:105220002B46FBF77DF90024CDE90C01264606AD9F
:105230004846514622460423FDF764F93CA3D3E9CE
:105240000023C8B1DBF800100EA88C4200EBC607A3
:1052500012D0D5E9000157E90823FBF785FD0028A6
:1052600018BF26460134042C05F108050FD098F824
:10527000000098F80110DDE7D5E90001FBF750F9CF
:105280000134042CC5E9000105F10805EFD1032E16
:1052900016D8DFE806F03802291A98F8022098F8A4
:1052A000003098F801102648264C1344DBB2002247
:1052B0006C2988F80030026002D1DF2B00D92270FF
:1052C000214B1E600FB0BDE8F08F98F8012098F8D0
:1052D00002101B4B114402221A601B4B88F801106C
:1052E0001E600FB0BDE8F08F98F8011098F802200A
:1052F000134B891A03221A60134B88F801101E60A1
:105300000FB0BDE8F08F98F8000098F8023098F8D8
:1053100001200B490B4CC31ADBB201206C2A88F820
:1053200000300860CCD1002BCAD1E0232370C7E73E
:10533000000000000070A74000005B4000005C40DF
:1053400008000020DC0C002010000020AFF30080DB
:1053500030B5364B1B68032B85B01DD0344A12681C
:10536000032A17D8DFE802F03A455002042B314AED
:10537000314B106808BF31491A7818BF30495B7843
:105380000E250024073A073B0095019502940394EB
:105390001DF0E8F905B030BD2A4B1B68B3F5EE7F70
:1053A00015DAB3F5E17F3ADCB3F5D57F0FDAB3F563
:1053B000C87F34DCB3F5BC7F09DAB3F5AF7F2EDCF0
:1053C000B3F5A37F03DAA3F58A73182B27D8194AFC
:1053D000194B10681C491A785B78D1E7042B154AE1
:1053E000154B106808BF19491A7818BF18495B781F
:1053F000C6E7042B0F4A104B106808BF15491A78EE
:1054000018BF15495B78BBE7042B0A4A0A4B1068A2
:1054100008BF12491A7818BF11495B78B0E7054AEE
:10542000054B10680F491A785B78A9E7D00C00206B
:1054300010000020A49F0120DC0C0020200B002085
:10544000680A0020E40C0020080C0020C409002099
:105450007C0B0020E8090020180A0020B40C002072
:10546000540C0020FC0A00202DE9F04F85B007F015
:105470008FF904A9002301F8083D904FDFF84C9202
:1054800001916C22602101238D4D8E4E8E4CDFF8F0
:105490004CB2039039707A70BB70CA464FF0FA086C
:1054A00003E003A8142107F0B5FA884920684FF0FB
:1054B000FF3205F0A1FE01280146F2D12B68002B36
:1054C0005FD1B8F1000F00F099809AF80030FA2B04
:1054D00000F0978099F80230012B2B687DD032685C
:1054E000B2F5FB7F39D0042B0BD8DFE803F01D0D9C
:1054F00042450300FFF720FE3B78704A702B00F016
:10550000C480FFF725FFCCE739786C4B70295A78B7
:1055100000F0C7806C2A00F0CD806B2A94BF013266
:1055200002F1FF325A70ECE77B78644A642B08F191
:10553000FF3800F09B80DBF80010032900F0AB80FF
:1055400091785B1ADBB2642B537000F09A80742B55
:10555000D7D10223CBF80030D3E7032BC3D1DFF838
:1055600064E15B4900230222CEF8003004232A6064
:105570000B60FFF7D1FBC4E70132D3073260C0D420
:1055800039E09AF80020FA2A3BD0032B43D0022BB3
:10559000A0D13B7849489A1A0232042A9AD8427814
:1055A0009AF80130D31A0233042B93D8DFF830E194
:1055B0008DF8081000221346DEF80000019905F06E
:1055C000EDFB0022434913460868019905F0E6FB0C
:1055D00099F80230012B2B6881D19A1E012A3FF6DF
:1055E0007EAFDFF8DCE03C4903230422CEF8003034
:1055F00002230A603360FFF797FC82E7304A1060AD
:1056000068E70023602233602B606C233A707B7064
:105610004FF0FA085EE73B7828499A1A0432082AC4
:105620003FF658AF4A789AF80130D31A0433082B62
:105630003FF650AFDFF8A8E0DEF80000DFF880E0CA
:105640004FF0000C0421CEF80010624663464FF084
:10565000020E0199C6F800C0CDF800C08DF808E030
:1056600005F09CFBDDF800C06246ABE7DBF80020EC
:10567000022A06D0BA781344DBB2642B7B707FF425
:1056800066AF0323CBF800303BE753786C2B04BFA5
:1056900001232B6035E7742BECD10223CBF80030CB
:1056A0002FE7013AD2B2542A5A707FF42AAF02236C
:1056B0002B6026E70131197023E700BFDC0C0020C6
:1056C000D00C0020E40C0020340A0020D40C002070
:1056D0000C000020A00B002008000020100000207B
:1056E000A8090020104B11495A780868642A0FD085
:1056F000032808D09878121AD2B2642A5A700FD0B0
:10570000742A02D07047742A04D102230B607047B8
:10571000022805D098780244D2B2642A5A70EFD198
:1057200003230B60704700BF640D00201C000020A5
:105730000D4B1978702904D05A786C2A08D06B2A3E
:1057400003D95A78013A5A70704701325A7070473B
:10575000064A1278602A04D0802AF8D101391970DB
:105760007047013119707047640D0020600D0020F2
:1057700030B44848484B04785A7845781978101D59
:10578000EF2C00F0070018DDD8B9444DD0080C1FED
:10579000C0EBC00048BFCC1C05EB800000EBE4046C
:1057A00060782E286DD0DF2967D900221A70012277
:1057B0001A713B4B30BC1A6070470A2C01DC002880
:1057C00034D0081DEF2D00F0070018DC0A2D43DC53
:1057D000002841D1D01CC0100138C0EBC0008000AF
:1057E00000EBD1012D48415C2E2904BF02F1FF32AC
:1057F0005A7002221A712A4B30BC1A60704758BB8B
:10580000101F48BFD01CC0100130C0EBC00080008A
:10581000224C00EBD101615C2E2904BF01325A7089
:1058200003221A711E4B30BC1A6070471B4CD00803
:10583000C0EBC00004EB8000CC1C00EBD40010F8DF
:10584000010CB9B16C2A1FD02E281FD000221A716A
:10585000134B30BC1A60704718790328C9D801A4CB
:1058600054F820F02D5800088B570008D557000831
:1058700001580008E0221A70E8E76C2A97D1DB296A
:1058800095D90131197092E70429DDD801391970D1
:10589000DCE700BF6C0D0020640D002014B002088E
:1058A0001C00002030B44748474B04785A784578AC
:1058B0001978101DEF2C00F0070018DDD8B9434D02
:1058C000D0080C1FC0EBC00048BFCC1C05EB80000B
:1058D00000EBE40460782E2868D0E0296ED06C2AB2
:1058E00062D001221A713A4B30BC1A6070470A2C00
:1058F00001DC002834D0081DEF2D00F0070018DC73
:105900000A2D42DC002840D1D01CC0100138C0EB69
:10591000C000800000EBD1012C48415C2E2904BF5F
:1059200002F1FF325A7002221A71294B30BC1A6000
:10593000704750BB101F48BFD01CC0100130C0EBD7
:10594000C0008000214C00EBD101615C2E2904BF16
:1059500001325A7003221A711D4B30BC1A60704715
:105960001A4CD008C0EBC00004EB8000CC1C00EB4C
:10597000D4006C2A10F8010C1BD02E281BD000225A
:105980001A71134B30BC1A60704718790328CAD8B3
:1059900001A454F820F000BF61590008BF58000866
:1059A0000959000835590008DB299AD901311970C5
:1059B00097E70429E1D801391970E0E700221A704D
:1059C0008FE700BF6C0D0020640D002014B00208AA
:1059D0001C000020000000002DE9F04FDFF80482D9
:1059E000DFF8FCB198F801A08FB0AAF10400FAF733
:1059F000E3FE0022784BFAF791FD98F80090CDE98C
:105A000000014846FAF7C8FE0022744BFAF786FDFB
:105A100002460B46FAF736FF04460AF104000D462B
:105A2000FAF7CAFE00226C4BFAF778FDCDE90201C5
:105A300009F10400FAF7C0FE0022684BFAF76EFD88
:105A4000CDE904015046FAF7A7FE0022624BFAF7AF
:105A500065FD02460B46FAF715FF0646A9F104005C
:105A60000F46FAF7A9FE00225C4BFAF757FD0246F3
:105A70000B46FAF707FF32463B46FAF751FDCDE9F0
:105A80000601DDE9040102460B46FAF7FBFE324649
:105A90003B46FAF745FDCDE90801DDE90001024684
:105AA0000B46FAF7EFFE22462B46FAF739FDCDE911
:105AB0000A01DDE9020102460B46FAF7E3FE22463F
:105AC0002B46FAF72DFD0024CDE90C01264606AD44
:105AD0004846514622460423FCF714FD3CA3D3E973
